:020000040800F2
:100000004025002039020008C329000851260008B5
:10001000C1290008811500087D310008000000009A
:10002000000000000000000000000000A101000826
:10003000D115000800000000E5010008712D00083E
:10004000530200085302000853020008530200083C
:10005000530200085302000853020008530200082C
:10006000530200085302000853020008530200081C
:10007000530200085302000853020008530200080C
:1000800053020008530200085302000853020008FC
:1000900053020008530200085302000853020008EC
:1000A00053020008FD2D0008530200085302000807
:1000B0005302000853020008092E000853020008EA
:1000C00053020008530200085302000853020008BC
:1000D00053020008530200085302000853020008AC
:1000E00053020008530200085302000800F002F80F
:1000F00000F047F80AA090E8000C82448344AAF17B
:100100000107DA4501D100F03CF8AFF2090EBAE878
:100110000F0013F0010F18BFFB1A43F0010318473B
:10012000387E0000587E0000103A24BF78C878C19D
:10013000FAD8520724BF30C830C144BF04680C60ED
:10014000704700000023002400250026103A28BF35
:1001500078C1FBD8520728BF30C148BF0B60704739
:10016000662905F04887002070471FB500F016FC8F
:1001700004000020002104F0BBFEE0601FBD10B5AC
:1001800010BD00F007FD1146FFF7EFFF03F032FA54
:1001900000F025FD03B4FFF7F2FF03BC00F068FD9B
:1001A000224B19680868B0E8F00F80F30988BFF3A4
:1001B0006F8F4FF0000080F311884EF00D0E7047E6
:1001C0000000000006480068006880F3088862B6F6
:1001D00061B6BFF34F8FBFF36F8F00DF00BF00BF6B
:1001E00008ED00E0EFF30980BFF36F8F0F4B1A6843
:1001F00020E9F00F106008B54FF0500080F311882F
:10020000BFF34F8FBFF36F8F04F082F94FF0000000
:1002100080F31188BDE8084019680868B0E8F00F5D
:1002200080F30988BFF36F8F704700BF3C00002048
:10023000EFF30580704700000948804709480047F0
:10024000FEE7FEE7FEE7FEE7FEE7FEE7FEE7FEE786
:10025000FEE7FEE704480549054A064B70470000E3
:10026000FB2D0008ED000008401F00204025002065
:1002700040210020402100200FB41CB5074B06AAE6
:100280007B4469460090059800F01BFB00206946FE
:1002900000F02AFB1CBC5DF814FB000065060000A2
:1002A0002DE9F0474FF0000A89460446C0F820A027
:1002B0002046E1688847002876D0252806D0D4E972
:1002C00001219047206A401C2062F1E7E168204646
:1002D00000258847C4F81CA006460027C4F818A0CB
:1002E0002A2E09D0304602F06EFF38B304EB87089F
:1002F000303EC8F8186019E059F8041B204604EB9A
:1003000087029161E1688847012F064618D1E069AC
:10031000002820DA25F020051DE0D8F8180000EBB1
:10032000800006EB40003038C8F818002046E1682D
:100330008847064602F047FF0028EED1012F0AD079
:100340002E2E08D12046E16888477F1C0646022FE2
:1003500045F02005C4DBA069002803DA404245F0DF
:100360000105A061E80701D025F01005B6B1A6F19E
:100370004100192802D8203645F400654A46314626
:10038000204625604D46FFF7EBFE58B1012806D008
:10039000ED1D25F0070000F1080989E704E005F1EB
:1003A000040985E730468AE7206ABDE8F087032A1A
:1003B00040F2308010F0030C00F0158011F8013B82
:1003C000BCF1020F624498BF11F801CB00F8013B69
:1003D00038BF11F8013BA2F1040298BF00F801CB2D
:1003E00038BF00F8013B11F0030300F08282083AA5
:1003F000C0F0088051F8043B083A51F804CBA0E85B
:100400000810F5E7121D5CBF51F8043B40F8043BAF
:10041000AFF30080D20724BF11F8013B11F801CBE4
:1004200048BF11F8012B24BF00F8013B00F801CBB5
:1004300048BF00F8012B704702F0FF0343EA032294
:1004400042EA024200F089BA4FF0000200B51346BA
:1004500094469646203922BFA0E80C50A0E80C50E4
:10046000B1F12001BFF4F7AF090728BFA0E80C5095
:1004700048BF0CC05DF804EB890028BF40F8042B8E
:1004800008BF704748BF20F8022B11F0804F18BFFB
:1004900000F8012B704770477047704770472DE98F
:1004A000FF4F0C461E464FF0FF378BB0D2E90001DC
:1004B000DDF860800A908A46C1F30A5505B93D46C9
:1004C000002108464FF00000BAF1000F00F4400090
:1004D00005DA00EB80004FF4400101EA50004FEADA
:1004E0009059B9F1010F00DDB9460A9850EA4A0067
:1004F0000ED044F61050A5F2FF3545432F14B8F145
:10050000000F1ED07542291E1EDDC9F100021CE03D
:10051000B8F1010F4FF0000001D0302103E0F243A9
:1005200005E02154401CB042FBDB30460022002194
:1005300021540B99C1F80880C1E900200FB0BDE833
:10054000F08FBD1B6D1CDEE74A4600DA694206A843
:1005500000F0AEFA06AB93E8070003AB83E80700B0
:1005600050460A9900F08BFB8DE80700A0F500507B
:100570001F3800900398002D09DD42F21F014A4602
:10058000084403A90390684600F0EAFD08E0A0F5DE
:1005900000504A461F3803A90390684600F0F4FD56
:1005A0008DE807000004000C03D04FF0FF30410835
:1005B00000E01046B8F1000F03D00022009215466B
:1005C0001EE0751E05D400F0EDF9303262556D1E47
:1005D000F9D5B3460122084302D000227F1C04E073
:1005E0002078302801D100227F1E002A099786D06A
:1005F0001DE0112D07DA00F0D5F9303262556D1C7F
:1006000050EA0102F5D1084302D00098C8B10EE0CB
:100610000021681E05E0235C625C63542254401E86
:10062000491C8142F7DBAB46A81B401E0990002005
:1006300004F80B000B98099AC0F80880C0E9002B59
:100640007CE711264FF0000859E72DE9F04F884666
:100650000446D21D22F0070191B0D1E90001CDE995
:100660000A0102F08CFD02460B98C00F01D02D202C
:1006700007E02068810701D52B2002E0202101EA54
:10068000C000032A099001D0072A05DB0346414632
:10069000204600F0CDF90BE12078800601D5E06915
:1006A00000E00620B8F1650F814606D0B8F1660F6C
:1006B00018D0B8F1670F70D131E00020B9F1110FF7
:1006C000009001DB112301E009F101030AAA01A94D
:1006D0000CA8FFF7E4FEDDE90C70002609F1010526
:1006E000834647E001204B4600904FF000470AAA9E
:1006F00001A90CA8FFF7D3FEDDE90DB00C995D460A
:10070000002610B909F101000D18B9EB050003D45A
:10071000C0F1FF3609F10105A5EB09002BE0B9F1A5
:10072000010F01DA4FF001090020B9F1110F00901B
:10073000484601DD112300E003460AAA01A90CA8DE
:10074000FFF7ADFEDDE90C704D46002683462078AC
:1007500000070AD4AB4500DA5D4601A8012D04DD8F
:10076000411911F8011C302907D04F4502DA17F161
:10077000040F04DA012082460FE06D1EEEE7002F21
:1007800002DCED1B3E4403E0781CA84200DD7D1C2A
:10079000B81B00F1010A4FF000472078000703D48E
:1007A000AA4501DB4FF0FF3A0021B7F1004F0DF1F0
:1007B00043088DF8431024D002202B23002F01DAA8
:1007C0007F422D230A21021EA0F1010000DC5FB14F
:1007D00097FBF1FC97FBF1F201FB1C7C17460CF137
:1007E000300C08F801CDEEE7A8F101000370218874
:1007F000090501D5452100E06521A0F1010800F8B7
:10080000011C09980FA9A1EB0807FF1D00B10120E9
:10081000411901EBEA70A1693844081A401EA06131
:100820002078C00602D42046AFF30080099828B192
:10083000D4E901219047206A401C20622078C0063C
:1008400022D52046AFF300801EE0002E04DBB34526
:1008500002DD01A8805D00E03020D4E9012190474D
:10086000206A401C2062761CAAF101005FEA000A9F
:100870000AD100F093F8C0680168405CD4E9012116
:100880009047206A401C2062281EA5F10105DCDC8F
:1008900007E0D4E9012118F8010B9047206A401CB9
:1008A0002062381EA7F10107F3DC2046AFF3008079
:1008B000032011B043E6000001694A1C0261087878
:1008C000704700B58FB0CDE9013100210591054990
:1008D0007944CDE9031011466846FFF7E1FC0FB0FB
:1008E00000BD0000E5FFFFFF0A6802F8010B0A6087
:1008F000704710B5203AC0F00B80B1E81850203A8C
:10090000A0E81850B1E81850A0E81850BFF4F5AFAF
:100910005FEA027C24BFB1E81850A0E8185044BF39
:1009200018C918C0BDE810405FEA827C24BF51F8A6
:10093000043B40F8043B08BF7047D20728BF31F89A
:10094000023B48BF11F8012B28BF20F8023B48BFEB
:1009500000F8012B70474FF000020429C0F012800C
:1009600010F0030C3FF472ADCCF1040CBCF1020F9B
:1009700018BF00F8012BA8BF20F8022BA1EB0C0137
:10098000FFF764BD5FEAC17C24BF00F8012B00F8CB
:10099000012B48BF00F8012B70470000004870474A
:1009A000001F002030B5B0F10A024FEA900E71F13D
:1009B00000034EEA817EB0EB0E0061EB91014FEA3D
:1009C000101E4EEA017E10EB0E0041EB11114FEAB2
:1009D000102E4EEA016E10EB0E0041EB11214FEA92
:1009E000104E4EEA014E10EB0E0041EB1141401843
:1009F00041F100014FEAD00040EA41704FEAD101D5
:100A000010EB80054FEA810444EA907444EB010442
:100A10006D1944EB0404521BA3414FF0000348BF7F
:100A20000A3200D530BD401C41F1000130BD00004C
:100A30002DE9F0411F46044603260168072A01F408
:100A4000006004DB08B116A505E016A503E008B1B7
:100A500015A500E015A521F010002060A069C01EBA
:100A6000A0610FB1401EA0612046AFF300804FB1DE
:100A7000D4E9012138469047206A401C2062C01CFE
:100A8000206206E0206AFAE7D4E9012115F8010B9B
:100A90009047761EF8D22046AFF30080BDE8F08183
:100AA0004E414E006E616E00494E4600696E660012
:100AB0002DE9F047814616468AB0334878440DC880
:100AC0008DE80D0030487844801C03AC0DC884E8E4
:100AD0000D0041F69B300844372190FBF1F290FB6A
:100AE000F1F5A5F1800501FB12041B3C02D564421F
:100AF000012000E00020DFF890A080460027FA44A3
:100B0000AAF1BE0A0DE0E00709D03246684607EBBD
:100B100047010AEB810100F037FB8DE80700641004
:100B20007F1C002CEFD1184F7F44AC3F18E0E80742
:100B300014D007EB04100DF1180A90E80E008AE8B3
:100B40000E00C068F04201D198190890324606A9FB
:100B500003A800F019FB03AB83E807006D10641CC9
:100B6000002DE4D132466946B8F1000F03A802D047
:100B700000F0F6FA01E000F007FBC9E90001C9F84E
:100B800008200AB0BDE8F087607400000048704794
:100B9000E01E00207546FFF7F9FFAE4605006946E6
:100BA000534620F00700854618B020B5FFF752FBEA
:100BB000BDE820404FF000064FF000074FF000085E
:100BC0004FF0000B21F00701AC46ACE8C009ACE8DF
:100BD000C009ACE8C009ACE8C0098D46704710B543
:100BE0000446AFF300802046BDE81040FFF7D2BABC
:100BF0004FF0013C50F8042B51F8043B9A4221D1AC
:100C0000A2EB0C03934313EACC1317D150F8042B37
:100C100051F8043B9A4215D1A2EB0C03934313EA1B
:100C2000CC130BD150F8042B51F8043B9A4209D154
:100C3000A2EB0C03934313EACC13DBD04FF000007C
:100C4000704700BFD01A01BAB1FA81F101F0180162
:100C500022FA01F0CB40C1F12001DBB2C0B2C01AD0
:100C60002CFA01F3D11A914311EAC311E6D170476E
:100C700001491820ABBEFEE72600020070475FEA7C
:100C8000400C08BF91F0000F4FEA8C234FEAC122BD
:100C900043EA51514FEA1C5018BF00F5F0404FEAAB
:100CA000300018BF41F000415FEA6C5C00F0298021
:100CB000BCF1FF3F08BF40F080407047130C06BFF7
:100CC00012044FF0100C4FF0000C130E04BF120270
:100CD0000CF1080C130F04BF12010CF1040C930F5C
:100CE00004BF92000CF1020CD30F04BF52000CF1B0
:100CF000010C11464FF00002A0F11F00A0EB0C0008
:100D0000704711F0004F08BF704731F000413FF4C9
:100D1000D5AF0B0C06BF09044FF0100C4FF0000CC0
:100D20000B0E04BF09020CF1080C0B0F04BF0901E4
:100D30000CF1040C8B0F04BF89000CF1020CCB0FDB
:100D400004BF49000CF1010CCCF12003A0EB0C0016
:100D500022FA03F302FA0CF241EA030100F1010066
:100D6000704720F07F4C80EA030023F07F47ACEB14
:100D7000070303F57C5300F0004003F1FF032DE966
:100D800080494FEA154B09B44FEA144325EA0B4E4C
:100D900024EA03480FF2042606EB132749083E789D
:100DA0005FEA320203FB0667C7F5000707FB06F69A
:100DB0004FEA54374FEAD64606F1020607FB066CA7
:100DC000CCF1005C4FEA1C472CEA074C07FB06F409
:100DD0000CFB06F504EB15464FEA961634BF0020CF
:100DE0004FF000404FEAD13706FB07FC4FEA1C4C9E
:100DF0000CFB0BF7D21B03FB0CF761EB07010CFBA1
:100E00000EF7B0EB074072EB17420CFB08F734BF4C
:100E1000A2EB0742B2EB074261EB17414FEA0C44E9
:100E20004FEA910706FB07FC4FEA1C4C0CFB0BF743
:100E3000B0EBC74072EB573203FB0CF734BFA2EBA9
:100E4000C742B2EBC74261EB57310CFB0EF7B0EB78
:100E5000C70072EB57720CFB08F734BFA2EBC70256
:100E6000B2EBC70261EB5771039F4FEA816141EA20
:100E7000921104EBCC044FEAD1374FEA826206FBB1
:100E800007FC42EA90124FEA80604FEA1C4C0CFBD0
:100E90000BF7D21B03FB0CF761EB07010CFB0EF702
:100EA000B0EB074072EB17420CFB08F734BFA2EB24
:100EB0000742B2EB074261EB17414FEA8C554FEA0C
:100EC000910704EB9C2406FB07FC4FEA1C4C0CFB2F
:100ED0000BF7B0EBC74072EB573203FB0CF734BF94
:100EE000A2EBC742B2EBC74261EB57310CFB0EF7E6
:100EF000B0EBC70072EB57720CFB08F734BFA2EBE4
:100F0000C702B2EBC70261EB577115EB4C254FEAF4
:100F1000816141EA92114FEA82624FEAD13742EA97
:100F2000901206FB07FC44F100044FEA80604FEA90
:100F30001C4C0CFB0BF7D21B03FB0CF761EB0701FE
:100F40000CFB0EF7B0EB074072EB17420CFB08F7F7
:100F500034BFA2EB0742B2EB074261EB174115EB3E
:100F60001C154FEA813141EA92414FEA823242EA4E
:100F700090424FEA80304FEA0C7644F1000448EA90
:100F800003434EEA0B484FF0000EB2EB080C71EB36
:100F9000030724BF624639464EEB0E0E4FF0000B9E
:100FA0000018524149414BEB0B0BB2EB080C71EBB3
:100FB00003077BF1000B24BF624639464EEB0E0E51
:100FC0004FF0000B0018524149414BEB0B0BB2EBB9
:100FD000080C71EB03077BF1000B24BF6246394616
:100FE0004EEB0E0E51EA020718BF46F0010616EB53
:100FF0000E7655F1000254F1000103D5BDE88901D8
:10100000BDE80088BDE88901BDE80048B619524135
:1010100041EB0101A3F10103704780807F7E7D7C5D
:101020007B7A7978777676757473727171706F6E7A
:101030006E6D6C6C6B6A6A69686867666665646425
:10104000636362616160605F5F5E5E5D5D5C5C5BAF
:101050005B5A5A595958585757565655555554541E
:10106000535352525251515050504F4F4F4E4E4D7C
:101070004D4D4C4C4C4B4B4B4A4A4A4949494848C8
:101080004847474747464646454545444444444308
:1010900043434342424242414141002B26D4770020
:1010A00021D01CB54FEA370703B44FF010004FF0C2
:1010B00010014FF000000FBCBDE810400BF1010B18
:1010C000BBF1010F08BF5FEA170722BF12F101024F
:1010D00011F101014FF0004143F1000300F0004025
:1010E00043EA00007047F9D35708DAE746EA0646B4
:1010F00013F1400F4FEA16461FDD13F1200FDFBF3B
:1011000016430A46002120335B42C8D0C3F12007B2
:1011100046EA064602FA07F74FEA164646EA070687
:10112000C3F1200722FA03F201FA07F721FA03F1CB
:101130004FF0000342EA0702B1E746EA020646EA38
:1011400006464FEA164646EA0106BCBF46EA064690
:10115000360C4FF000034FF000024FF000019EE705
:101160002DE9C048934630B491E8380007C831EA09
:10117000400C48BF34EA430C03D5FFF7F2FDFFF7FC
:101180008CFFF0BCBDE800882DE9C048934630B420
:1011900091E8380007C810F0804F08BF13F0804F67
:1011A00003D100F005F8FFF778FFF0BCBDE8008838
:1011B00020F07F4780EA030023F07F4C07EB0C030D
:1011C000A3F57C5300F00040A3F1FE0392F0000F62
:1011D00000F0B38095F0000F00F077802DE9014911
:1011E0004FEA11404FEA144621EA004800FB06FC92
:1011F00024EA064708FB06F607FB08F800FB07F79A
:1012000018EB06484CEB164C4FEA124B18EB07480C
:101210004FEA15464CEB174022EA0B4E0BFB06FC3F
:1012200025EA06470EFB06F607FB0EFE0BFB07F74B
:101230001EEB064E4CEB164C4FF000061EEB074E15
:101240004CEB174B18EB0B0840F1000018EB0E0BA2
:1012500058EB000840F100008F1A4FF000013CBF2E
:10126000C943661B14BFB5EB040C00213CBFC94346
:10127000F61B4FEA17444EEA8E0E27EA04454FEA62
:101280001C4704FB07622CEA074C05FB07F70CFB25
:1012900005F604FB0CFC16EB074642EB174216EB77
:1012A0000C4642EB1C421BEB060658EB0202414186
:1012B00046EA9E0601D5BDE80189B619524141EBC7
:1012C0000101A3F10103BDE801894FEA14454FEA8A
:1012D000114724EA054621EA074C05FB07F406FB03
:1012E00007F70CFB06F105FB0CFC11EB074144EB87
:1012F00017444FEA124711EB0C4144EB1C4422EA1D
:10130000074C05FB07F206FB07F70CFB06F605FB8F
:101310000CFC16EB074642EB174216EB0C4642EB71
:101320001C456A1854F1000148BF7047B619524174
:1013300041EB0101A3F10103704795F0000F37D095
:101340004FEA11424FEA144721EA024624EA074CC9
:1013500002FB07F106FB07F70CFB06F402FB0CFC93
:1013600014EB074441EB17414FEA154714EB0C44CB
:1013700041EB1C4125EA074C02FB07F506FB07F78A
:101380000CFB06F602FB0CFC16EB074645EB17457B
:1013900016EB0C4645EB1C42121951F1000148BFF7
:1013A0007047B619524141EB0101A3F101037047A7
:1013B0004FEA14454FEA114724EA054621EA074C53
:1013C00005FB07F106FB07F70CFB06F24FF00006E2
:1013D00005FB0CFC12EB074241EB174112EB0C42F0
:1013E00051EB1C4148BF7047921841EB0101A3F13A
:1013F0000103704708B50020ADF80000BDF80000FB
:101400000A2803D2BDF80000401CF5E708BD000023
:1014100010B586B0002002901048816941F00801A3
:10142000816180690E4C00F0080004904FF4704018
:10143000009001200190032003906946204600F0AF
:10144000CBF80122D103204600F0BBF901221103A1
:10145000204600F0B6F906B010BD000000100240B2
:10146000000C01402DE9F0411C4615460022214B9D
:10147000DDF8188003F038FE02460B464FF080403E
:101480001D4904F075F803F0F3FFC0F30D06C0F337
:101490008D3748F440484FF4807000F02FF84FF437
:1014A000045000F02BF815B1012D05D010E046F4E2
:1014B000804047F4804503E046F4004047F400458F
:1014C00000F01CF8284600F019F8404600F016F825
:1014D00044B1022C09D0012C0AD16003BDE8F041CF
:1014E00000F00CB842F20200F8E742F22800F5E7FB
:1014F000BDE8F08180842E41E17A64412DE9F04716
:1015000001221E4E054697033946304600F059F930
:101510004FF4004901224C464946304600F051F94B
:1015200000222146304600F04CF900244FF4005AC6
:101530004FF6FF78280401D5012200E00022514631
:10154000304600F03EF9FFF755FF0022394630469D
:1015500000F037F9FFF74EFF01223946304600F020
:1015600030F9641CE4B208EA4505102CE2D3494680
:101570003046BDE8F047012200F023B9000C0140DD
:10158000FEE7000070B5074C0546666800F0A4FA57
:101590000549B0FBF1F169436068801B8842FBD3C9
:1015A00070BD0000001000E040420F0006480168D6
:1015B00041F080710160054800214160016841F0FF
:1015C0000101016070470000FCED00E0001000E048
:1015D000704772B6FEE700002DE9F84FDFF8B891CA
:1015E0000024A9F1040B23460F2709F1040AABF1EB
:1015F000040EC9E00125A5402A40AA427DD1674ECC
:10160000D1F804C0ACEB0608B44532D014DCBCF110
:10161000030F3AD009DCBCF1000F2AD0BCF1010F56
:101620001CD0BCF1020F31D11DE0BCF1110F17D05D
:10163000BCF1120F2AD119E0B8F5881F19D006DCC9
:10164000B8F5803F15D0B8F5801F1FD111E0B8F56F
:10165000001F0ED0B8F5041F18D10AE0CB6815E0C2
:10166000CB681B1D12E0CB6808330FE0CB680C334E
:101670000CE08B682BB1012B4FF0080303D04561C0
:1016800004E0042302E0056100E00023FF2A01D802
:10169000064601E000F104064FEA840501D9A5F1F0
:1016A0002005D6F8008007FA05FC28EA0C0803FAA2
:1016B00005F548EA0508C6F800804D68ED0062D5DA
:1016C000374DAE6946F00106AE61AD6924F0030600
:1016D00005F001050095334D06EB050CDCF80850CC
:1016E000A607360F07FA06F825EA0805DFF8B880DE
:1016F000404503D14FF0000817E044E0DFF8AC802C
:10170000404502D14FF001080FE0DFF8A4804045CA
:1017100002D14FF0020808E0DFF89880404502D17E
:101720004FF0030801E04FF0040808FA06F848EA11
:101730000508CCF808804D68D9F80060ED024D46E8
:1017400001D5164300E096432E604D68DAF800603C
:10175000AD02554601D5164300E096432E604D6814
:10176000DBF80060AD035D4601D5164300E096430B
:101770002E604D68DEF80060ED03754601D5164316
:1017800000E096432E60641C0D682A46E5407FF415
:1017900031AFBDE8F88F00000804014000001110CF
:1017A000001002400000014000080140000C014010
:1017B00000100140001401408068084000D0012062
:1017C00070470AB1016170470904FBE7014880686E
:1017D0007047000028000020024881680278114408
:1017E0008160704728000020074810B5016841F06B
:1017F00010010160032000F0A7F8002000F006F8B7
:1018000000F050F8002010BD0020024030B5054621
:101810001F4887B0C16941F00401C161C06906A9D0
:1018200000F00400009001A800F036F90498B0B16F
:1018300000F058F940001749174AB0FBF1F117487A
:10184000491E0260416040F2E7320021C0E90321F5
:101850008160816100F07CFB040003D015E000F0A2
:1018600041F9E8E70D4800F0BFFB04000DD11E2050
:1018700000F03CF8102D07D2002229461E2000F06F
:1018800043F80748056000E0012407B0204630BD5A
:101890000010024040420F000008004044010020B8
:1018A0002C0000200F4808B5816941F001018161D9
:1018B000816901F001010091C16941F08051C1616C
:1018C000C069002200F0805000900F21901E00F0AF
:1018D0001BF80548416821F0E06141F0007141606A
:1018E00008BD00000010024000000140002809DB94
:1018F00000F01F02012191404009800000F1E0202A
:10190000C0F8001170470000F0B40E4B1B680C4685
:10191000C3F30223C3F10705042D00D90425191DC3
:10192000072901D2002300E0DB1E012606FA05F19B
:10193000491E214099409E40761E16403143F0BC1E
:1019400001F031BC0CED00E0064900F00702086828
:101950004FF6FF03184040EA0220034A1043086094
:10196000704700000CED00E00000FA052DE9F0479B
:101970000F46050061D0434E306800F00700B842C2
:1019800009D2306820F0070038433060306800F03A
:101990000700B84251D128683B4C810712D5400757
:1019A00003D5606840F4E06060602878000703D5E4
:1019B000606840F4605060606068A96820F0F000E2
:1019C000084360602878C00728D06868012810D0D4
:1019D0002168022810D0890700292EDA616821F0D9
:1019E000030101436160FFF7F1FE804641F288394F
:1019F0000DE021688903EFE78901EDE7FFF7E6FED7
:101A0000A0EB0801494502D90320BDE8F0876068D2
:101A1000696800F00C00B0EB810FEFD1306800F086
:101A20000700B8420BD9306820F007003843306017
:101A3000306800F00700B84201D00120E5E72878BF
:101A4000400705D56068E96820F4E06008436060FD
:101A50002878000706D56068296920F4605040EABC
:101A6000C100606000F05EF86168084AC1F30311CC
:101A7000515CC8400649086006480068FFF7C6FE8A
:101A80000020C2E700200240001002407A600008F7
:101A9000340000202C0000200F2202600C4A536802
:101AA00003F003034360536803F0F003836053685B
:101AB00003F4E063C36052684FF4E06303EAD202C8
:101AC00002610448006800F00700086070470000E9
:101AD00000100240002002400148006870470000EA
:101AE000340000200448054900684968044AC1F3ED
:101AF0000221515CC84070473400002000100240B1
:101B00008A6000080448054900684968044AC1F32E
:101B1000C221515CC84070473400002000100240D0
:101B20008A6000080E4A51680E4801F00C03042B2D
:101B300011D0082B0FD10C48C1F38343C903C05CFB
:101B40000AD55168084AC1F34041921E515C054ACA
:101B50005043B0FBF1F07047044948437047000020
:101B60000010024000127A006A60000800093D007F
:101B70002DE9F84F040070D02078C04DC00749D03F
:101B80006868C0F38100012807D06868C0F381004D
:101B9000022809D16868C00306D52868800339D5B2
:101BA00060680028E7D035E06068B0F5803F0BD072
:101BB00010B1B0F5A02F11D0286820F48030286033
:101BC000286820F4802002E0286840F480302860F3
:101BD000606890B1FFF7FAFD06460AE0286840F415
:101BE00080202860F0E700BFFFF7F0FD801B64282D
:101BF00073D828688003F7D50CE0FFF7E7FD0646A9
:101C000005E000BFFFF7E2FD801B6428F0D82868DC
:101C10008003F7D420789A4E80074FF001094FF0E7
:101C2000000839D5686810F00C0F07D06868C0F359
:101C30008100022809D16868C00306D4286880079B
:101C400014D52069012808D110E02069B0B1C6F888
:101C50000090FFF7BBFD074605E00AE1FFF7B6FD80
:101C6000C01B0228C4D828688007F7D52868616996
:101C700020F0F80040EAC10028600DE0C6F80080BE
:101C8000FFF7A4FD074604E0FFF7A0FDC01B0228F4
:101C900023D828688007F7D4207800072CD5794806
:101CA000A169D9B1C0F80090FFF790FD074604E0A4
:101CB000FFF78CFDC01B02280FD8686A8007F7D594
:101CC00071484FF4FA510068B0FBF1F0009000BF8A
:101CD0000098411E0091FAD20EE080E0C0F800802A
:101CE000FFF774FD074604E0FFF770FDC01B0228F4
:101CF00075D8686A8007F7D42078400760D5E8690E
:101D00000027C00008D4E86940F08050E861E86925
:101D1000012700F0805000905C480168C90513D489
:101D20000168834641F480710160FFF74FFD8246F0
:101D300006E000BFFFF74AFDA0EB0A0064284ED87A
:101D4000DBF80000C005F5D5E06801280AD008B12D
:101D5000052813D0286A20F001002862286A20F0A4
:101D6000040002E0286A40F001002862E06841F2C5
:101D7000883B98B1FFF72AFD82460BE0286A40F0C5
:101D800004002862EEE700BFFFF720FDA0EB0A0188
:101D900059455AD8286A8007F6D50CE0FFF716FD9A
:101DA000824605E0FFF712FDA0EB0A0159454CD829
:101DB000286A8007F6D41FB1E86920F08050E861F6
:101DC000E06988B36968C1F38101022944D002281F
:101DD000C6F8608004D0FFF7F9FC044638E034E030
:101DE000FFF7F4FC074604E0FFF7F0FCC01B0228F5
:101DF0002BD828688001F7D4206AB0F5803F05D140
:101E00006868A16820F4003008436860D4E90801DC
:101E10000843696821F4741108436860C6F860904B
:101E2000FFF7D4FC044606E025E000BFFFF7CEFC38
:101E3000001B022809D828688001F7D51BE000BFE5
:101E4000FFF7C4FC001B022802D90320BDE8F88F6D
:101E500028688001F4D40EE00128F7D06868226A6F
:101E600000F48031914204D1616A00F4701088421C
:101E700001D00120EAE70020E8E70000001002405E
:101E800000004242800442423400002000700040C2
:101E90007047704710B590F83C20012A22D00122EB
:101EA00080F83C20CA688C6822F4407222434C6857
:101EB00022F4806222430C6822F4006222430C69FF
:101EC00022F4805222434C6922F400522243C96911
:101ED000002322F480420A4301684A6480F83C30BF
:101EE000002010BD022010BD70B590F83C20012AE2
:101EF00026D0012480F83C40022280F83D2003686F
:101F00005A689D6822F070060A6832435A600D4B89
:101F100002689A4208D0B2F1804F05D00A4B9A422B
:101F200002D00A4B9A4204D1496825F08003194334
:101F3000916080F83D40002180F83C10084670BD5B
:101F4000022070BD002C0140000400400008004049
:101F500010B5040003D094F83D0010B107E0012053
:101F600010BD002084F83C00204600F01FF802203D
:101F700084F83D00211D206800F04CFF012084F80A
:101F8000460084F83E0084F83F0084F8400084F85E
:101F9000410084F8420084F8430084F8440084F847
:101FA000450084F83D00002010BD000008B5006821
:101FB0000B49884212D10B48816941F4006181616B
:101FC0008069002200F40060009005211920FFF7CD
:101FD0009BFCBDE808401920FFF788BC08BD000045
:101FE000002C01400010024090F83D10012901D062
:101FF00001207047022180F83D100168CA6842F054
:102000000102CA6000680B49884208D0B0F1804FD5
:1020100005D00949884202D00849884204D1816824
:1020200001F00701062903D0016841F001010160B8
:1020300000207047002C01400004004000080040D0
:1020400070B5044690F83C000025012817D0012601
:1020500084F83C60022084F83D002068826822F009
:10206000770222F47F4282600868502838D00DDC65
:1020700020284FD005DC90B3102811D14AE002206F
:1020800070BD302846D040280AD13BE060282FD0D0
:1020900070280DD0B0F5805F03D0B0F5005F12D08E
:1020A000012584F83D60002084F83C00284670BD7E
:1020B000CB68D1E90121206800F0EFFE206881683B
:1020C00041F0770109E0CB68D1E90121206800F0F7
:1020D000E4FE2068816841F480418160E1E719E015
:1020E000CA684968206800F08DFF5021206806E02A
:1020F000CA684968206800F096FF6021206800F0F7
:10210000D6FECEE7CA684968206800F07BFF402110
:102110002068F4E7226801461046F0E7704770B582
:102120000446006801694FF00005C943890715D4CA
:10213000C168C943890711D4E91E016101202077D4
:10214000206880698007204602D0FFF7E7FF04E09F
:1021500000F0BEF8204600F050F9257720680169AC
:10216000C943490717D4C168C943490713D46FF05D
:1021700004010161022020772068806910F4407F0B
:10218000204602D0FFF7CAFF04E000F0A1F8204685
:1021900000F033F9257720680169C943090716D48F
:1021A000C168C943090712D46FF008010161042016
:1021B00020772068C0698007204602D0FFF7AEFF75
:1021C00004E000F085F8204600F017F92577206834
:1021D0000169C943C90617D4C168C943C90613D4E4
:1021E0006FF010010161082020772068C06910F4A9
:1021F000407F204602D0FFF791FF04E000F068F82E
:10220000204600F0FAF8257720680169C943C9071C
:1022100008D1C168C943C90704D1891E016120469C
:1022200000F03AF920680169C943090609D4C16878
:10223000C943090605D46FF0800101612046FFF70C
:1022400027FE20680169C943490609D4C168C9430A
:10225000490605D46FF040010161204600F036F9CF
:1022600020680169C94389060BD4C168C94389063E
:1022700007D46FF0200101612046BDE87040FFF7F0
:1022800008BE70BD00B585B000210091019102919A
:10229000039100680B49884212D10B48816941F0D3
:1022A000040181618069694600F0040004904FF4E4
:1022B000807000900220019003900448FFF78CF991
:1022C00005B000BD002C0140001002400008014094
:1022D000704770B5044690F83C0000260D46012872
:1022E0000FD0012084F83C006AB1042A1DD0082ACE
:1022F0002FD00C2A3FD00126002084F83C00304625
:1023000070BD022070BD206800F0DAFD2068816990
:1023100041F0080181612068816921F00401816137
:10232000206881692A69114311E0206800F0F0FDFE
:102330002068816941F4006181612068816921F42C
:1023400080618161206881692A6941EA0221816195
:10235000D2E7206800F008FE2068C16941F008015A
:10236000C1612068C16921F00401C1612068C169AF
:102370002A69114311E0206800F022FE2068C1693B
:1023800041F40061C1612068C16921F48061C161CB
:102390002068C1692A6941EA0221C161ACE710B530
:1023A000040003D094F83D0010B107E0012010BDF7
:1023B000002084F83C00204600F01EF8022084F83B
:1023C0003D00211D206800F025FD012084F8460015
:1023D00084F83E0084F83F0084F8400084F841000F
:1023E00084F8420084F8430084F8440084F84500EF
:1023F00084F83D00002010BD7047704710B50446BA
:10240000022249B104290ED0082913D094F84100C2
:10241000012816D0012010BD94F83E000128F9D102
:1024200084F83E200FE094F83F000128F2D184F8B0
:102430003F2008E094F840000128EBD184F84020C8
:1024400001E084F841200122206800F019FD0F49C5
:102450002068884203D1426C42F400424264206802
:10246000884208D0B0F1804F05D00949884202D097
:102470000849884204D1816801F00701062903D088
:10248000016841F001010160002010BD002C0140F5
:10249000000400400008004010B5044600680849E8
:1024A000884201D1FFF798F906492068884206D191
:1024B00000F034F9044900B101200968486310BDF7
:1024C00000080040002C0140B4000020704770B5A7
:1024D000040004D094F84100002510B106E001206A
:1024E00070BD84F84050204600F024F8242084F881
:1024F00041002068C16821F40051C160204600F00D
:10250000A5FD2068016921F49041016120684169BD
:1025100021F02A0141612068C16841F40051C16085
:102520006564202084F8410084F84200656300203F
:1025300070BD000070B586B0002400940194029430
:10254000039400681449884223D11448816941F4F6
:1025500080418161816901F480410491816941F088
:10256000040181618069022500F0040004904FF4A9
:102570000070CDE900050320094E039069463046FE
:10258000FFF72AF868028DE8310069463046FFF708
:1025900023F806B070BD0000003801400010024072
:1025A000000801402DE9F843044690F8420099469E
:1025B00016460D46202802D00220BDE8F883ADB1B2
:1025C000A6B100206064222184F842102063FFF746
:1025D000FDF8A6858046E685A0684FF48057B8428E
:1025E00001D1206920B12E46002526E00120E4E734
:1025F000002622E04346002220212046CDF800900C
:1026000000F080FD08B10320D7E726B1A068B842EA
:102610001BD038B108E020684068C0F3080025F8F6
:10262000020B07E0206980B12068406800F07F005D
:1026300006F8010BE08D401EE085E08D0028D9D121
:10264000202084F842000020B7E720684068EFE7C8
:10265000FEE7000070B501220E4D14022146284607
:10266000FFF7AFF80122560231462846FFF7A9F8D6
:1026700000F048F8002221462846FFF7A2F800F0B3
:1026800041F8002231462846FFF79BF8BDE870402C
:1026900000F038B8000C014070B50B4D4FF4807459
:1026A000002221462846FFF78CF8012251022846D5
:1026B000FFF787F800F026F821462846BDE870406D
:1026C0000122FFF77EB80000000C014070B50C4CF1
:1026D000012211022046FFF774F800F013F80122DE
:1026E000550229462046FFF76CF800F00BF800224F
:1026F00029462046FFF765F8BDE8704000F002B8B3
:10270000000C01400320401EC0B2FCD27047000004
:10271000014908807047000038000020054A1188F0
:10272000C1F34030C1F38033584040EA4101118089
:1027300070470000380000202DE9F047284C06467D
:102740004FF4805A1127002251462046FFF739F8EE
:1027500000254FF400594FF48048380601D5012276
:1027600000E0002249462046FFF72BF8FEF742FE24
:10277000002241462046FFF724F8FEF73BFE0122E7
:1027800041462046FFF71DF878066D1C070EEDB296
:10279000082DE2D300254746300601D5012200E08E
:1027A000002249462046FFF70CF8FEF723FE0022E0
:1027B00039462046FFF705F8FEF71CFE0122394690
:1027C0002046FEF7FEFF70066D1C060EEDB2082DCA
:1027D000E2D351462046BDE8F0470122FEF7F1BFA3
:1027E000000C014010B50B4A00210B4800F094FF8B
:1027F0000A4C084A002120612432094800F08CFF6D
:10280000044A606148320021064800F085FFA0615B
:1028100010BD0000FC5F00088935000800000020A2
:10282000D5310008B133000870B586B000242248C5
:102830000094019402940394816941F02001816124
:10284000816901F020010491816941F008018161F1
:10285000816901F008010491816941F004018161FD
:102860008069164E00F00400049000224FF473417A
:102870003046FEF7A6FF0F20CDE90004012469468B
:1028800030460294FEF7A8FE4FF47040CDE90004F4
:1028900002200325CDE9020569463046FEF79CFE7D
:1028A0002802009001AA112082E8310069463046D2
:1028B000FEF792FE06B070BD00100240000C014011
:1028C00010B596B000240F941094119412941394A0
:1028D0001C2108A81494FDF7B7FD20216846FDF7D8
:1028E000B3FD2848264901604721C0E901140121B0
:1028F000C0E903148021C0E90541FFF729FB08B1B5
:10290000FEF767FE4FF480500F900FA91D48FFF7A8
:1029100097FB08B1FEF75DFE1A48FFF740FD08B1CE
:10292000FEF757FE139413A916481494FFF7DCFA28
:1029300008B1FEF74EFE6020CDE908040A940B941E
:102940000C940D94002208A90E480E94FFF7C1FCC8
:1029500008B1FEF73EFE00944FF40050CDE904406C
:10296000029401940394694606480794FFF792FA8B
:1029700008B1FEF72EFE0348FFF784FC16B010BD29
:10298000002C0140B40000200C4810B50A49016039
:102990004FF416514160002181600C22C160C0E9F2
:1029A00004128161C161FFF792FD002803D0BDE8E8
:1029B0001040FEF70EBE10BD00380140FC000020A4
:1029C000FEE7FEE730B40021084B0A465FF0000046
:1029D00003EBC004401CC0B262548028F8D3491CE9
:1029E000C9B20829F2D330BC00F0B8B88C0100207D
:1029F00030B1012807D100215FF0A70000F072B9C3
:102A00000021A620FAE7704710B500218D2000F0C4
:102A100069F90021142000F065F90021BDE810409B
:102A2000AF2000F05FB910B558B1012810D10021D6
:102A3000C02000F057F90021A020BDE8104000F0B0
:102A400051B90021C82000F04DF90021A120F4E780
:102A500010BD000030B5CC0801F0070301259D40F2
:102A6000EBB2064D05EBC005C808285C0AB1184357
:102A700002E063EA0000C043285530BD8C0100200D
:102A800010B50021AE2000F02DF90021084600F01D
:102A900029F90021102000F025F90021402000F044
:102AA00021F90021812000F01DF90021CF2000F044
:102AB00019F90021A12000F015F90021C82000F02B
:102AC00011F90021A62000F00DF90021A82000F046
:102AD00009F900213F2000F005F90021D32000F082
:102AE00001F90021084600F0FDF80021D52000F092
:102AF000F9F80021802000F0F5F80021D92000F03D
:102B0000F1F80021F12000F0EDF80021DA2000F0CA
:102B1000E9F80021122000F0E5F80021DB2000F0A8
:102B2000E1F80021302000F0DDF80021202000F045
:102B3000D9F80021022000F0D5F800218D2000F006
:102B4000D1F80021142000F0CDF8FFF73BFF002161
:102B5000BDE81040AF2000F0C5B8000070B5184EB9
:102B6000002400BF04F1B000C0B2002100F0BAF8A8
:102B70000021084600F0B6F80021102000F0B2F85D
:102B8000FFF768FD782000F0C9F8FFF79FFD4020AF
:102B900000F0C4F8FFF79AFD5FF0000506EBC500F2
:102BA000005D00F0BBF8FFF791FD6D1CEDB2802DCC
:102BB000F4D3FFF771FD641CE4B2082CD2D370BDCE
:102BC0008C0100202DE9FC4F1C460E4682468B46A8
:102BD0000190082B0DD0600700D0012000EBD4003D
:102BE00061084843C0B28146203AD0B2009000202C
:102BF0004BE00620F7E7082C13D00C2C18D0102C33
:102C00001BD0182C44D10098234900EBC00000BF12
:102C100001EB8001002711F80850E80712D00B9A49
:102C200013E000981D4900EB400001EB4001F1E783
:102C300000981B4900EB4000EAE71A49009801EBB5
:102C40000011E7E70B9828B3002231465046FFF702
:102C500001FF761C7F1C6D08FFB2F6B2082FDCD393
:102C60000AF1010000F0FF0A082C0AD00199AAEB32
:102C70000100B0EB540F04D10BF108008A4600F0BC
:102C8000FF0B08F101005E46C0B280464845B2D352
:102C9000BDE8FC8F0122D8E71E6D00089260000895
:102CA000BA6200082E6700082DE9F8411E46154655
:102CB00088460446079F0BE033464146204600976E
:102CC000FFF780FF082E0AD004EB5600C4B26D1C3B
:102CD0002A78A2F120005E28EED9BDE8F881A41D73
:102CE000E4B2F4E770B50C460546FFF7B3FC782074
:102CF00000F014F8FFF7EAFC0CB1402000E00020DF
:102D000000F00CF8FFF7E2FC284600F007F8FFF7A8
:102D1000DDFCBDE87040FFF7BFBC00002DE9F041CD
:102D2000124F002405464FF480787E15280601D501
:102D3000012200E0002241463846FEF742FDFFF73F
:102D4000E1FC012231463846FEF73BFDFFF7DAFC95
:102D5000002231463846FEF734FD6806641C050E35
:102D6000E4B2082CE2D3BDE8F0810000000C014081
:102D700010B5502080F31188BFF34F8FBFF36F8FD2
:102D800001F014FF18B104494FF080500860002092
:102D900080F3118810BD000004ED00E030B58FB065
:102DA00028216846FDF750FB14210AA8FDF74CFBCB
:102DB00001210804CDE900100024029402250491A9
:102DC000CDE907504FF4E01009906846FEF7D0FEB9
:102DD00008B172B6FEE70F20CDE90A054FF4806016
:102DE000CDE90C4002210AA80E94FEF7BFFD002891
:102DF00001D072B6FEE70FB030BD70470148FFF753
:102E00008EB90000B40000200148FFF788B9000027
:102E100044010020F0B50268164B174C174D4FF0D7
:102E20008047984205D0B84203D0A04201D0A842C2
:102E300003D122F070064A683243984205D0B84266
:102E400003D0A04201D0A84203D122F44074CA6842
:102E500022434C6922F08002224302608A68C262E7
:102E60000A688262984201D10969016301214161C6
:102E7000F0BD0000002C01400004004000080040AC
:102E800010B501F01F030121046A99408C430462CC
:102E9000016A9A401143016210BD10B5846842EA8C
:102EA000032224F47F440A432243826010BD8268D7
:102EB00022F070020A4342F007018160704700006F
:102EC00030B5036A026A22F0010202624268846934
:102ED00024F073050C682C4323F002058B682B4308
:102EE0000A4DA8420BD123F00805CB6822F44072AA
:102EF0002B434D6923F0040315438A692A4342603A
:102F0000846149684163036230BD0000002C0140C8
:102F100030B5026A036A23F01003036243688469D0
:102F20000D6824F4E64444EA05248D6822F020026A
:102F300042EA05120B4DA8420ED1CD6822F0800264
:102F400042EA05124D6923F4406343EA85038D6923
:102F500022F0400243EA850343608461496881634B
:102F6000026230BD002C014030B5036A026A22F4CF
:102F7000807202624268C46923F4007324F073050E
:102F80000C682C438D6843EA05230C4DA8420ED1F2
:102F9000CD6823F4006343EA05234D6922F44052CF
:102FA00042EA05128D6923F4806342EA0512426009
:102FB000C4614968C163036230BD0000002C014058
:102FC00030B5046A026A22F4805202624268C36920
:102FD0000D6823F4E64343EA05238D6824F4005486
:102FE00044EA0534064DA84204D14D6922F48042DA
:102FF00042EA85124260C36149680164046230BDDF
:10300000002C014010B5036A046A24F00104046234
:10301000846924F0F00444EA021423F00A020A430B
:103020008461026210BD10B5036A046A24F01004C2
:103030000462846923F0A00324F4704444EA023259
:1030400043EA01118261016210BD000070B50446BF
:1030500000680169E26821F440511143016121696E
:10306000A0680843616908432168CA6841F20C639B
:103070009A430243CA6020684169A26921F4407101
:10308000114341611E492068884202D1FEF73AFD92
:1030900001E0FEF727FD00EBC00101EB00126068C4
:1030A00064218000B2FBF0F3B3FBF1F36FF018067C
:1030B0007343B2FBF0F5B2FBF0F605EB8305322368
:1030C00003EB0515B5FBF1F5B6FBF1F605F0F005E0
:1030D00005EB0615B2FBF0F6B2FBF0F0B0FBF1F039
:1030E0006FF01802504306EB800003EB0010B0FBBA
:1030F000F1F0216800F00F002844886070BD0000E6
:10310000003801402DE9F041984617460E46044626
:10311000069D27E0681C25D02DB1FEF757FBA0EBDC
:103120000800A8421ED920680C3050E8001F21F486
:10313000D07140E80012002AF5D12068143050E820
:10314000001F21F0010140E80012002AF5D12020E3
:1031500084F8410084F84200002084F840000320F5
:10316000BDE8F0812068006836EA000004D0002045
:10317000B842CFD00020F3E70120F9E7FEE749008D
:1031800050EAC12018BF04204A0D18BF40F00100CA
:1031900040F2FF72B2EB515F08BF40F0020001281D
:1031A00008BF052070470907090E002804DB00F15D
:1031B000E02080F80014704700F00F0000F1E020DC
:1031C00080F8141D704730380A2801D2012070475A
:1031D000002070476A4C08B56068E060A06802F0A3
:1031E000E5FB0126DFF89CB1DFF89C9102274FF048
:1031F000000AC4E9080101214D464846FEF7DCFA01
:1032000020BB60788046B6EB101F08D15F49E068AC
:1032100002F0F8FB5E49E060884200DDE160B7EB58
:10322000181F10D1D4E908015A4A5B4B01F0A8FEDF
:1032300000225A4BC4E9080102F098FA03D2574918
:103240000020C4E90801C82001F022F80221284624
:10325000FEF7B2FA28BB60788046B6EB101F09D1A2
:103260004A49E06802F052FE4849E060884201DACB
:103270000846E060B7EB181F10D1D4E90801454AB1
:10328000454B02F0A9FA0022454BC4E9080102F0BF
:1032900033F903D842490020C4E90801C82000F0EE
:1032A000F7FF0421A8462846FEF786FAF0BB6578AA
:1032B000B6EB151F01D1E0686060B7EB151F04D1B4
:1032C000D4E9080101F02AFEA0600320B0EB151F2D
:1032D0001DD1207880B10020207078B1DBF800008B
:1032E000C26822F00102C260DBF80010C1F834A00D
:1032F000206901F035F80AE00120EDE7DBF8000075
:10330000C16841F00101C160206901F0ABF82549B5
:10331000A06802F02FFD02F049FB01230022CDF846
:1033200000A0FEF79FF82049606800E00CE002F082
:10333000D7FB1E4902F01EFD02F0E4FCC0B2FFF70D
:10334000FBF9C82000F0A4FF08214046FEF734FA3C
:1033500088B96068E060A06802F028FBC4E9080151
:1033600060781030C0B26070402801D110206070C9
:10337000C82000F08DFF0A2000F08AFF3BE7000024
:1033800000000020B4000020000C01400000C842F2
:10339000000096449A9999999999C93F0000104064
:1033A0000000F03F0024744900409C4500007F432A
:1033B0008AB000F099FE5DA101A8FCF75DFF012530
:1033C0000021102301AA08460095FFF76DFC59A1C2
:1033D00001A8FCF751FF102301AA0021302000951D
:1033E000FFF762FC55A101A8FCF746FF102301AAD4
:1033F000194600200095FFF757FC51A101A8FCF7E2
:103400003BFF102301AA202100200095FFF74CFC70
:103410004DA101A8FCF730FF102301AA30210020A4
:103420000095FFF741FC102349A21946642000953E
:10343000FFF73AFCFFF792FB00F076FE4FF0FF3803
:103440001026C146FF27434C00F04EFE404602F0D6
:1034500079FCE16802F006FC14D0E06802F0A6FAFC
:1034600002460B463CA101A8FCF706FF102301AA67
:10347000194630200095FFF717FCE06802F026FCA3
:103480000FFA80F8484602F020F8D4E9082301F04A
:1034900083FF1ED0D4E908014FF03332304B02F0E5
:1034A0002BF804D22FA101A8FCF7E6FE05E0D4E931
:1034B00008232EA101A8FCF7DFFE102301AA20217A
:1034C00030200095FFF7F0FBD4E9080101F0A0FFE0
:1034D00081462078B8420CD028B326A101A8FCF779
:1034E000CBFE3021102301AA08460095FFF7DCFB34
:1034F0002778607886420ED0102320A231466420BF
:103500000095FFF7D1FB0095102311A2617864208C
:10351000FFF7CAFB6678FFF721FB00F005FE3220BB
:1035200000F0B6FE90E716A1D8E700007061726166
:103530006D00000076616C7565000000565050000B
:1035400046726571000000004D6F64650000000068
:103550003C2D000000000020252E30666D56200016
:103560003333F33F312E304D487A0000252E31663B
:103570004D487A00557361727420000020202000AD
:1035800052616E646F6D000008B5184D4FF0680809
:1035900000266423012269461548FFF703F800BBA3
:1035A00028689DF8007046634046FDF7EBFF002455
:1035B00027FA04F010F0010F04D0E8682968401CD5
:1035C000486301E0286846634046FDF7DBFF641C62
:1035D000082CEDDBE8682968401C48634046FDF78D
:1035E000D1FF0A2000F042F8D3E70000B400002029
:1035F000FC00002008B5FEF7F7F8FFF7CFFBFFF758
:1036000013F9FFF75DF9FFF7BFF9FDF7CFFFA92029
:10361000FFF77EF8FFF734FA0020FFF7E9F9002002
:10362000FFF701FAFFF7F0F9FDF7F2FE00200123A2
:1036300002460C490090FDF715FF1620FFF77CF8B5
:1036400000210948FEF7DAFE07480068C16841F02A
:103650000101C16000F024F8FFF7C4F800F03CF865
:10366000FEE7000080843E41B400002010B5EFF377
:10367000058149B9EFF3108131B908490968022978
:1036800005D1EFF3118111B16FF0050403E00024BF
:1036900008B100F0FDFD204610BD00008C000020A8
:1036A000EFF3058058B9EFF3108040B90949086875
:1036B000022801D030B109E0EFF3118030B16FF092
:1036C0000500704701200860002070474FF0FF3070
:1036D000704700008C00002010B5EFF3058060B942
:1036E000EFF3108048B90B490868022802D001287E
:1036F00006D00BE0EFF3118040B16FF0050010BD74
:103700000220086000F06AFE002010BD4FF0FF307C
:1037100010BD00008C000020F0B585B04FEA010319
:103720004FF00004EFF305810394A1BBEFF3108188
:1037300089BB21490968022902D1EFF3118151BBEC
:1037400048B3802618218DF8104004AD42B31768A5
:1037500007B13D4697691FB139467F1E382F02D207
:103760001779FF0702D0002005B0F0BD576907B1F7
:10377000BE08D2F808C0BCF1000F0DD0D4685C2C94
:1037800018D312693AB137B18DE80610324629468E
:1037900001F0CDF903900DE0D7685FB912694AB91D
:1037A00003AACDE90012B2B2294601F093F901282B
:1037B00000D003940398D7E78C0000202DE9F04156
:1037C000134C0F46054666692068001D00F030FC6A
:1037D000681C07D137B12168BDE8F0410D48091DCB
:1037E00000F076BC20683544B5424560216805D2BA
:1037F000A068BDE8F041091D00F052BC6068091DD9
:1038000000F04EFC206B854200D22563BDE8F081BC
:103810003C000020FC0A00202DE9F041054600F0A4
:1038200063FC2D4C2069401C206120682B4F10B197
:10383000E06930B32BE025602069012827D10026FC
:1038400006EB860007EB800000F01CFC761C382E8F
:10385000F6D3234800F016FC2148143000F012FC87
:103860001F48283000F00EFC1D483C3000F00AFCD8
:103870001B48503000F006FC194860601430A0600E
:1038800005E02068E96AC06A884200D82560E06ADD
:10389000401CE0626864E86AA169884200D9A061BE
:1038A00000EB800007EB8000291D00F011FC00F008
:1038B0003BFCE06900280CD02068E96AC06A8842B5
:1038C00007D208494FF080500860BFF34F8FBFF315
:1038D0006F8FBDE8F08100003C0000204C06002006
:1038E000AC0A002004ED00E038B500F0FDFB104C00
:1038F000A068C8B90F4800F0C5FB0E48143000F0AE
:10390000C1FB0C482060143060600A4B0020283353
:10391000009003F1500210210A2000F07FFEA06009
:1039200010B105A100F07EFCBDE8384000F0FCBB02
:1039300078000020100B0020546D72510000000030
:1039400030B4026C0B46002A0BD0C1681144C16030
:103950004468A14201D30168C16030BC1846FCF73D
:1039600026BD30BC70472DE9F041856B17460446F3
:103970000026026C82B1C7B1E068FCF718FDE1686F
:10398000206C091AE1602268914202D26168081A2B
:10399000E060022F16D017E02068A8B9606801F037
:1039A00069F90646002060600EE0A068FCF7FFFCA5
:1039B000216CA0680844A0606168884204D3206834
:1039C000A06001E005B16D1E6D1CA5633046BDE829
:1039D000F08110B5044690F8590058B101280CD078
:1039E00002280FD0502080F31188BFF34F8FBFF310
:1039F0006F8FFEE7206B00F0ABFB2046BDE8104068
:103A000000F0A6BB10BD000010484FF44061420713
:103A100006D0C01D0D4920F00700411AC1F54061D4
:103A20000B4A00230144C2E900030839103A21F08F
:103A3000070111604B600B600B1AC0E90013936023
:103A40004FF000405360D06070470000E01200204B
:103A5000A0000020144E154CA6F29C474FF0805851
:103A6000DFF84C9012E000BF00F03EFBF068C56844
:103A7000281D00F0DDFA2069401E2061E068401E2C
:103A8000E06000F051FB2846FFF7A3FFE068002844
:103A9000EAD138680128F9D9C9F80080BFF34F8FFF
:103AA000BFF36F8FF2E70000E80A00203C0000201F
:103AB00004ED00E070B51D46049C51B1C4F800202F
:103AC000C4E90F010121204600F0DCFD84F84C50D0
:103AD00070BD2460F4E72DE9F0470E46DDE9098466
:103AE0001746824691009946089DA522206BFCF757
:103AF000A3FC6FF00301206B01EB8701084420F069
:103B00000707780707D0502080F31188BFF34F8F45
:103B1000BFF36F8FFEE72218315C82F83410315CFE
:103B200011B1401C1028F6D3002684F84360382DCC
:103B300000D33725E562C4E91356201D00F0ADFA25
:103B400004F1180000F0A9FA2461C5F1380064629C
:103B5000A061666584F858604A465146384600F0D0
:103B600055FA2060B8F1000F01D0C8F80040BDE858
:103B7000F087000030B5114900E011460A68824222
:103B8000FBD34B685C18844203D1406818444860FA
:103B9000084643681C18944209D1084C103C24681C
:103BA000A24209D052681A4442600A681268026050
:103BB000814200D0086030BD0460F9E7A000002019
:103BC00070B5002441600B4D0061914206D8D11AB6
:103BD0008269914206D2011D686807E09A4203D2C9
:103BE000994201D3012403E0011D286800F058FA2E
:103BF000204670BD7800002010B5044600F074FA2D
:103C0000A06B28B15FF0000400F08EFA204610BDD2
:103C10000124F9E730B589B0304D55E0049800280B
:103C200006DADDE90601059A9047049800284BDB87
:103C3000069C606910B1201D00F0FAF902A800F09E
:103C4000B9F8024604980A283ED2DFE800F00505DC
:103C5000053D263705053D260598A1690346014423
:103C60002046FFF7ADFF00B3616A20468847E06950
:103C7000012829D1002000900598A169002342184D
:103C80001946204601F000F978B9502080F31188D8
:103C9000BFF34F8FBFF36F8FFEE70598A06128B188
:103CA000811813462046FFF78BFF0DE0502080F36C
:103CB0001188BFF34F8FBFF36F8FFEE794F82C008E
:103CC00010B9204600F044FA002204A9A86800F0C8
:103CD0002BFE0028A2D109B030BD000078000020E2
:103CE0002DE9FC410F46054600F00AFC01A800F052
:103CF00061F80446019818B101F034F8BDE8FC8180
:103D0000224EAFB170680068A8B30027291B3A465D
:103D1000B06800F09BFA01F025F80028EED11C49AC
:103D20004FF080500860BFF34F8FBFF36F8FE5E710
:103D3000A542EBD801F016F830682746C068C46881
:103D4000201D00F075F9E069012810D1A0692B460B
:103D500041193A462046FFF733FF40B100200346A1
:103D6000014600902A46204601F08EF820B1616A93
:103D700020468847C2E707E0502080F31188BFF350
:103D80004F8FBFF36F8FFEE70127BFE7780000205A
:103D900004ED00E006484168096829B14168C96836
:103DA000C9684968016370474FF0FF31FAE70000C6
:103DB0003C00002070B5054600F0F2FE064E0446B9
:103DC0003069844203D200F009F8012000E00020AD
:103DD00028602046346170BD78000020F8B5194D88
:103DE0001FE0C068C4680668201D00F021F9616A00
:103DF00020468847E069012813D1A0693044B042C9
:103E000006D924616060211D286800F049F908E0A6
:103E100000200346014600903246204601F034F867
:103E200038B1286801680029DBD16968C5E900104C
:103E3000F8BD502080F31188BFF34F8FBFF36F8F11
:103E4000FEE700007800002008484068401C4FF062
:103E5000500080F3118804D0BFF34F8FBFF36F8FF2
:103E6000FEE7BFF34F8FBFF36F8FFEE7A800002080
:103E7000002150B10A4B42699A420FD1806AA3F1E6
:103E8000280290420AD040B108E0502080F3118807
:103E9000BFF34F8FBFF36F8FFEE7012108467047D6
:103EA000FC0A0020074C2068016841B1C06800216D
:103EB000D0F80000FFF714FFFFF7ACFEF3E7012195
:103EC0000020F7E7780000202DE9F041044600F0DB
:103ED0000BF994F9455004F1240609E0606A48B1F1
:103EE000304600F007FF08B100F000FA6D1E6DB219
:103EF000002DF3DC4FF0FF3684F8456000F014F934
:103F000000F0F2F894F9445004F1100709E0206938
:103F100048B1384600F0EEFE08B100F0E7F96D1E3A
:103F20006DB2002DF3DC84F84460BDE8F04100F090
:103F3000FBB800002DE9F0410546002700F0E0FA4B
:103F4000314E306808B9FFF75FFDF06805424BD18C
:103F5000C5B3083568070ED005F00700C0F10800AA
:103F60000544680707D0502080F31188BFF34F8FB6
:103F7000BFF36F8FFEE72DB37068854234D82248B7
:103F8000103001460C6801E020460C466168A942E9
:103F900002D221680029F7D131688C4224D0076809
:103FA0002168016060680837411B10290FD960192A
:103FB000420708D0502080F31188BFF34F8FBFF322
:103FC0006F8FFEE710E041606560FFF7D3FD616829
:103FD0007068401A7060B268904200D2B060F068B9
:103FE00001430020C4E9000100F0BCFE780707D0BF
:103FF000502080F31188BFF34F8FBFF36F8FFEE720
:104000003846BDE8F08100009000002010B5031F85
:104010004FF080741C601B1F21F001011960191FF3
:10402000024B0B60143940380A6010BD493E00084D
:10403000D0E9013201699A60D0E901235A604A68E7
:10404000824201D182684A60002202610868401EF3
:104050000860086870470000034B036003F15C00D0
:104060000860802010607047280C0020044B03601B
:1040700003F15C0008604FF480701060704700002E
:10408000840E002000F108014FF0FF32C0E9011258
:10409000C16001610021016070470021016170472A
:1040A00030B50B685A1C02D000F1080202E0026928
:1040B00004E02246546825689D42FAD953684B6053
:1040C00099608A60516008610168491C016030BDD7
:1040D00042684A6093688B60936859609160086198
:1040E0000168491C01607047502080F31188BFF3BC
:1040F0004F8FBFF36F8F0A494868401C4860012802
:104100000CD10848006810F0FF0F07D0502080F352
:104110001188BFF34F8FBFF36F8FFEE7704700002A
:10412000A800002004ED00E00849486828B1401EBE
:10413000486001D180F311887047502080F31188C6
:10414000BFF34F8FBFF36F8FFEE70000A800002082
:1041500070B5002827D0144DA0F108046168E86804
:10416000014207D1502080F31188BFF34F8FBFF376
:104170006F8FFEE722683AB1502080F31188BFF3B9
:104180004F8FBFF36F8FFEE78143616000F0B8F996
:1041900060686968084468602046FFF7EBFCBDE88A
:1041A000704000F0DFBD70BD900000204FF0E020B7
:1041B00000210161816105494FF47A720968B1FB00
:1041C000F2F1491E4161072101617047340000206E
:1041D00010B5FCF72DF8114910280ED300F1E0209E
:1041E00090F8F0030A78904207D2502080F31188AB
:1041F000BFF34F8FBFF36F8FFEE7094800688968F0
:1042000000F4E060884207D9502080F31188BFF3A2
:104210004F8FBFF36F8FFEE710BD0000A800002096
:104220000CED00E010B5084B002200BF53F83240FF
:104230001CB1521C082AF9D310BD43F8321003EB0D
:10424000C201486010BD00000C06002070B5154684
:104250000E460446FFF748FF94F944100020491C1D
:1042600001D184F8440094F94510491C01D184F827
:104270004500FFF759FFA06B28B92A46314604F1E3
:10428000240000F051F82046BDE87040FFF71CBE46
:1042900010B5020014D00F48806B38B1502080F365
:1042A0001188BFF34F8FBFF36F8FFEE700F028F93F
:1042B00000211046FFF782FA00F054FD002807D1D4
:1042C00005494FF080500860BFF34F8FBFF36F8FE9
:1042D00010BD00003C00002004ED00E002498A6AA5
:1042E00002604969416070473C000020014901209B
:1042F000486270473C00002010B50C4650B1094997
:1043000009681831FFF7CCFE2046BDE810400121B6
:10431000FFF754BA502080F31188BFF34F8FBFF3DB
:104320006F8FFEE73C00002070B514460D4668B163
:104330000A4909681831FFF7CBFE0CB14FF0FF3581
:1043400021462846BDE87040FFF738BA502080F378
:104350001188BFF34F8FBFF36F8FFEE73C00002043
:1043600070B504002AD01A4D286884422ED0FFF779
:10437000BBFE2046FFF77CFDE0B1201DFFF758FE95
:10438000E06AA969884200D9A861124900EB80005F
:1043900001EB8000211DFFF79BFEE06A2968C96AD6
:1043A000884207D30C494FF080500860BFF34F8F0D
:1043B000BFF36F8FBDE87040FFF7B6BE502080F3AB
:1043C0001188BFF34F8FBFF36F8FFEE770BD000002
:1043D0003C0000204C06002004ED00E030B587B022
:1043E0000024039405AA04A903A80494FFF734FE4B
:1043F000DDE903010094CDE90110002315A1174860
:10440000059A00F094FB164D002868631FD000F059
:104410000BFD012809D0401C19D1502080F31188D0
:10442000BFF34F8FBFF36F8FFEE7502080F31188EB
:10443000BFF34F8FBFF36F8F4FF0FF302863012022
:10444000E8616C6107B0BDE8304000F093B807B098
:1044500030BD000049444C4500000000553A0008BA
:104460003C00002070B50446FFF73EFE214D04B924
:104470002C68201DFFF7DCFDA06A18B104F11800BC
:10448000FFF7D6FD211D1C48FFF722FE94F85800C7
:104490000026012801D184F85860FFF745FEE8693D
:1044A00028B1FFF721FEFFF775FCFFF73DFE2868F6
:1044B000844213D1E86990B1A86B38B1502080F3E1
:1044C0001188BFF34F8FBFF36F8FFEE70B494FF09B
:1044D00080500860BFF34F8FBFF36F8F70BD0648E9
:1044E00000682969884201D12E6070BDBDE8704026
:1044F00000F00EB83C000020FC0A002004ED00E0B3
:104500000248816B491C8163704700003C00002019
:10451000164810B5816B11B10121416210BD002117
:1045200041628169124A01E0B9B1491E01EB810380
:1045300052F82330002BF7D001EB810302EB83020A
:1045400002F1080453685B685360A34201D15B68C1
:104550005360DA680260816110BD502080F31188D9
:10456000BFF34F8FBFF36F8FFEE700003C000020CA
:104570004C0600201CB5264908780190FF200870E1
:1045800008788DF800009DF800009DF8002000F0EC
:10459000F000904207D0502080F31188BFF34F8F76
:1045A000BFF36F8FFEE79DF800001A4B00F050003C
:1045B00018700720986005E09DF8002052008DF8E3
:1045C0000020401E9DF800201206F5D498600328B4
:1045D00007D0502080F31188BFF34F8FBFF36F8F48
:1045E000FEE74FF440709860019808700A4801682F
:1045F00041F470010160016841F070410160FFF712
:10460000D5FD00205860FBF7DDFD00201CBD00003B
:1046100000E400E0A800002020ED00E038B5049D93
:1046200018B153B1CAB181B120E0502080F3118894
:10463000BFF34F8FBFF36F8FFEE7502080F31188D9
:10464000BFF34F8FBFF36F8FFEE7502080F31188C9
:10465000BFF34F8FBFF36F8FFEE739B1502080F368
:104660001188BFF34F8FBFF36F8FFEE750241C46B6
:10467000012384F846302B460094FFF71BFA2046AE
:1046800038BD000070B50D46040025D0FFF72CFDA5
:10469000D4E90F20216802FB001161600021A163B1
:1046A0002168A1600A46D4E90F01401E00FB0121E8
:1046B000E16021464FF0FF3001F8440F487004F1EB
:1046C00010008DB1FFF7DEFC04F12400FFF7DAFCE7
:1046D000FFF72AFD012070BD502080F31188BFF341
:1046E0004F8FBFF36F8FFEE721690029F0D000F0F4
:1046F00001FB0028ECD004494FF080500860BFF364
:104700004F8FBFF36F8FE3E704ED00E02DE9FF4724
:1047100082B01D468A464FF00008040003D0BAF16B
:10472000000F08D011E0502080F31188BFF34F8FA5
:10473000BFF36F8FFEE7206C38B1502080F31188F3
:10474000BFF34F8FBFF36F8FFEE7022D0AD1E06BEF
:10475000012807D0502080F31188BFF34F8FBFF39B
:104760006F8FFEE700F00EFA3F4F4FF000094FF059
:10477000805648B9049838B1502080F31188BFF3AF
:104780004F8FBFF36F8FFEE7FFF7AEFCA06BE16BBF
:10479000884207D3022D05D00498D0B1B8F1000F9C
:1047A0001AD01EE02A4651462046FFF7DCF8616A1F
:1047B00019B104F1240000F09DFA20B13E60BFF36E
:1047C0004F8FBFF36F8FFFF7AFFC012006B0BDE83E
:1047D000F087FFF7A9FC22E06846FFF77FFD4FF066
:1047E0000108FFF7A1FCFFF78BFEFFF77DFC94F9B2
:1047F0004400401C01D184F8449094F94500401CC9
:1048000001D184F84590FFF78FFC04A9684600F0B9
:1048100027F930B12046FFF757FB00F0A3FA00203C
:10482000D4E7FFF761FCA06BE16B884213D1FFF77F
:104830007BFC04F110000499FFF75EFD2046FFF7B2
:1048400043FB00F08FFA00289ED13E60BFF34F8FEC
:10485000BFF36F8F98E7FFF767FC2046FFF734FB45
:1048600000F080FA90E7000004ED00E02DE9F04749
:104870001F4690468946040003D0B9F1000F08D0C6
:1048800011E0502080F31188BFF34F8FBFF36F8F7B
:10489000FEE7206C38B1502080F31188BFF34F8FB2
:1048A000BFF36F8FFEE7022F0AD1E06B012807D01C
:1048B000502080F31188BFF34F8FBFF36F8FFEE757
:1048C000FFF786FC5020EFF3118680F31188BFF3C9
:1048D0004F8FBFF36F8FA06BE16B884206D3022F1F
:1048E00004D0002086F31188BDE8F08794F9455084
:1048F0003A4649462046FFF736F8681C04D06D1C3E
:1049000084F845500120EDE7606A0028FAD004F1F0
:10491000240000F0EFF90028F4D0B8F1000FF1D036
:104920000121C8F80010EDE72DE9F747002683B014
:104930008A46040003D0BAF1000F08D011E05020DD
:1049400080F31188BFF34F8FBFF36F8FFEE7206CAA
:1049500038B1502080F31188BFF34F8FBFF36F8FB2
:10496000FEE700F00FF9DFF8F4804FF000094FF098
:10497000805748B9059838B1502080F31188BFF3AB
:104980004F8FBFF36F8FFEE7FFF7AEFBA56BC5B18F
:1049900051462046FEF7D4FF6D1EA563206950B135
:1049A00004F1100000F0A6F928B1C8F80070BFF3B8
:1049B0004F8FBFF36F8FFFF7B7FB012006B0BDE845
:1049C000F087059808B11EB106E0FFF7ADFB27E0C0
:1049D0006846FFF783FC0126FFF7A6FBFFF790FD73
:1049E000FFF782FB94F94400401C01D184F8449005
:1049F00094F94500401C01D184F84590FFF794FBE1
:104A000005A9684600F02CF8002820460AD0FFF7D8
:104A10005BFA00F0A7F92046FFF7EEF80028B3D0C4
:104A20000020CBE7FFF7E8F890B104F124000599E6
:104A3000FFF762FC2046FFF747FA00F093F90028E1
:104A4000A2D1C8F80070BFF34F8FBFF36F8F9BE701
:104A50002046FFF739FA00F085F995E704ED00E00C
:104A60002DE9F0410C46050011D0C4B1FFF73CFB25
:104A7000174B5A696E682068911B471C17D02F6826
:104A80009B6A9F4219D0964217D8012410E050200B
:104A900080F31188BFF34F8FBFF36F8FFEE7502075
:104AA00080F31188BFF34F8FBFF36F8FFEE70024B1
:104AB000FFF73AFB2046BDE8F081884205D9401A4D
:104AC00020602846FFF70AFCF1E700202060DCE7C1
:104AD0003C0000202DE9FF5F8346DDE90E87994603
:104AE00016468A469000FFF725FA05001CD05C2088
:104AF000FFF720FA040014D00020256384F8590041
:104B0000CDE90240CDE900874B4632465146584632
:104B1000FEF7E1FF2046FEF77FFE012004B0BDE86E
:104B2000F09F2846FFF714FB4FF0FF30F6E7F0B593
:104B300085B0DDE90B640A9DA6B1DCB15C27009766
:104B40002663022684F85960002604AFCDE90246A8
:104B5000CDE90057FEF7BFFF2046FEF75DFE049843
:104B600005B0F0BD502080F31188BFF34F8FBFF325
:104B70006F8FFEE7502080F31188BFF34F8FBFF394
:104B80006F8FFEE70548C16919B1806B18B100202D
:104B90007047012070470220704700003C00002051
:104BA00001484069704700003C0000202DE9F041B9
:104BB0002E4C0027A06B40B1206A401C2062606A26
:104BC00000B101273846BDE8F0816669761C666150
:104BD00013D16068006838B1502080F31188BFF3AA
:104BE0004F8FBFF36F8FFEE76068A1686160A060C0
:104BF000A06A401CA062FFF7CDF8206BDFF8708040
:104C0000864209D36068006880B16068C068C56882
:104C1000686886420DD220632068C06A00EB80017C
:104C200058F821000128CAD90127C8E74FF0FF3002
:104C3000F1E7281DFFF7FCF9A86A18B105F1180083
:104C4000FFF7F6F9E86AA169884200D9A06100EB94
:104C5000800108EB8100291DFFF73AFAE86A216814
:104C6000C96A8842CED30127CCE700003C0000206F
:104C70004C06002070B504004FF0000133D01B4DEE
:104C80002868844207D0502080F31188BFF34F8FEB
:104C9000BFF36F8FFEE7206D38B1401E2065E36CD7
:104CA000E26A9A421FD040B11DE0502080F3118883
:104CB000BFF34F8FBFF36F8FFEE7201DFFF7B8F9EB
:104CC000E06CE062C0F13800A061E06AA969884246
:104CD00000D9A861064900EB800001EB8000211D8E
:104CE000FFF7F6F90121084670BD00003C000020E6
:104CF0004C06002070B5C068C46854B104F11800B7
:104D00000646FFF795F9144DA86B50B1314613488C
:104D100015E0502080F31188BFF34F8FBFF36F8FE2
:104D2000FEE7201DFFF784F9E06AA969884200D9EF
:104D3000A8610B4900EB800001EB8000211DFFF70B
:104D4000C7F9E06A2968C96A884202D90120686205
:104D500070BD002070BD00003C000020D40A00207F
:104D60004C0600202DE9F0472C4D00242746A86B67
:104D700038B1FFF7B9F9A86B401EA863A86B40B122
:104D800046E0502080F31188BFF34F8FBFF36F8F41
:104D9000FEE72969224E0120D1B3A6F5916980462C
:104DA0003068E0B1F068C46804F11800FFF740F91A
:104DB000201DFFF73DF9E06AA969884200D9A86182
:104DC00000EB800109EB8100211DFFF781F9E06A0A
:104DD0002968C96A8842E3D3C5F82480E0E70CB1AA
:104DE000FEF7D8FF2C6A4CB14FEA0806FFF7DEFE4B
:104DF00000B16E62641EF9D100202862686A38B181
:104E00000849012738070860BFF34F8FBFF36F8F42
:104E1000FFF78AF93846BDE8F08700003C00002023
:104E2000D40A002004ED00E010B586B0FEF75CFD6A
:104E3000114CA068B8B100200390049005AA04A901
:104E400003A8FFF713F9DDE9032102208DE807002D
:104E500000230AA10B48059AFFF769FEE06010B134
:104E600006B0012010BD502080F31188BFF34F8F92
:104E7000BFF36F8FFEE7000078000020546D7220B2
:104E800053766300A53E00082DE9FF411E461346F8
:104E900002000A9D4FF0000016D0144CA768002FA6
:104EA0000FD0CDE900130292062917DAFFF76AFE48
:104EB00002284FF000030FD000226946A068FFF7D8
:104EC00025FC04B0BDE8F081502080F31188BFF3C9
:104ED0004F8FBFF36F8FFEE72A46EEE7002332467F
:104EE00069463846FFF7C2FCEBE700007800002077
:104EF00010B500290AD00878002807D00548784462
:104F0000FBF776FE002801D0002010BD024878444F
:104F100010BD00007A3000007230000021F0004225
:104F2000A2F16052B2F5801F01F0004328BFD2F118
:104F30007F6C0BD95FEA001C43EAC20242EB50705F
:104F400018BF704728BF20F001007047B2F5801FDE
:104F5000BCBF184670474FEA410C1CF5001F02D237
:104F6000084600F0CEBF70B500F0ACFB0000008931
:104F7000FFF7F6BF4FF00040A0F58000704700003B
:104F800010B591EA030F48BF83F0004300F12C8471
:104F9000841A71EB030C05D2121943EB0C03001BAE
:104FA00061EB0C01DFF824E14FEA1154A4EB135C30
:104FB0001EEA430F18BF9EEA445F73D023EA0E0334
:104FC000DCF1200E21EA045143F4801332D322FA9B
:104FD0000CFE10EB0E0023FA0CFE41EB0E01CCF19F
:104FE000200E03FA0EFE10EB0E0051F10001B1F598
:104FF000801FCCF1200E32D201EB045112FA0EF2D6
:10500000BDE8104058BF7047401C38BF5FEA4202FD
:1050100018BF7047002814BF20F0010041F10001C3
:105020004FEA410313F5001F38BF7047A1F1C0419B
:1050300000F096BB012A43EB0302ACF1200CDCF13B
:105040001F0E32BF4FF0000E23FA0CF310EB0300DB
:1050500041EB0451B4EB115FD0D0A1EB045101F549
:10506000801149085FEA300001EB04510ED350F182
:10507000000038BF12FA0EFE08D1BDE81040C9E7A3
:10508000401C38BF5FEA4202CAD1C3E7BDE8104006
:105090004FEA410313F5001F38BF7047A1F1C0412B
:1050A00000F05EBB9EEA445F08D011EA5E0FBDE8E7
:1050B000104004BF01F0004100207047BDE81040DF
:1050C00070B500F0FFFA00BF64FBBE3E0000E0FFD9
:1050D000491058BFC1F140415B1058BFC3F1404374
:1050E0008B42EFF3008070472DE9C04130B4DFF808
:1050F000A0C23CEA111418BF3CEA131400F0EC8083
:1051000081EA03051CEA111444EAD57418BF1CEAAD
:10511000131500F0C780A4EB05044FF0004545EAE5
:10512000C12145EAC32341EA505143EA525304F1F5
:105130007F74994204F500344FEAC0204FEAC2223E
:1051400008BF904200F09C804FEA13650FF24016B2
:10515000765D4FEA134506FB05F7C7F1807706FB3E
:1051600007F74FEAD737A7FB03687642C8F58038C0
:10517000A7FB06CE38BFA8F1010807FB08E64FF0F1
:10518000000EA6FB028CE6FB03CEDCF1000CCEF198
:10519000004E38BFAEF1010EA6FB0C584FF00007D1
:1051A0004FF00005E6FB0E87A1FB08C6A0FB07CE6B
:1051B00016EB0E0645F10005E1FB076515F1E04E23
:1051C0007EBFA4F580345FEA46066D4116F1800784
:1051D00045F100054FEA17274FEA066647EA0567DB
:1051E000A6F1DE46B6F1805F4FEA15251FD9384695
:1051F00024F0010C05EBC471BCF1FE6F01EB0C1146
:1052000002D8F0BCBDE8008124425CBF01F5801EDD
:105210009EEAC47F02D4F0BCBDE80081244238D4A9
:10522000F0BCA1F1C041BDE8004100F099BA4FEADD
:10523000D22242EA43524FEAD323A7FB02864FEA27
:10524000D02040EA415007FB03661EEA0E0F4FEAEA
:10525000D12105FB026658BFA6EB0056B6EB0056FF
:105260004FEA520E4EEAC37E18EB0E0E56EB530E6B
:10527000BDD518EB02085E417F1C55F10005B6E76D
:105280004FF480154FF000074FF000064FF0000874
:10529000ADE7F0BC4FF0000001F1C04101F000416A
:1052A000BDE8008111EA0C1F0CEA131500D00CE0D8
:1052B00013EA0C1F00F025804FF00000F0BC81EADB
:1052C000030101F00041BDE80081F0BCBDE80041F0
:1052D00081EA030100F044BAF0BCBDE8004170B5BA
:1052E00000F0F0F9097EFC3E00F007B881EA030106
:1052F0004FF0000001F00041704781EA030100F027
:105300002FBAF0BCBDE800414FF0000021497047C2
:10531000FFFDFBF9F7F5F4F2F0EEEDEBE9E8E6E47A
:10532000E3E1E0DEDDDBDAD8D7D5D4D3D1D0CFCD01
:10533000CCCBCAC8C7C6C5C4C2C1C0BFBEBDBCBB3A
:10534000BAB9B8B7B6B5B4B3B2B1B0AFAEADACAB35
:10535000AAA9A8A8A7A6A5A4A3A3A2A1A09F9F9E0F
:105360009D9C9C9B9A9999989797969595949393C1
:10537000929191908F8F8E8E8D8C8C8B8B8A898958
:1053800088888787868585848483838282818180DB
:105390000000FF070000F87F51EA030C17D41CF54A
:1053A000801F58BFBCF5801F00F10680994218BFCE
:1053B000704708BF9042704707D711F5801F58BF4C
:1053C00013F5801F19D499427047894270471CF524
:1053D000801F08D5BCF5801FF7D58B4218BF7047DA
:1053E00008BF824270474FF4001C1CEB410F38BFCE
:1053F0001CEB430F01D28B42704770B500F062F98D
:10540000922449004FF000514FF08053FFF760BEE7
:105410004FEA41034FEA5353A3F58063D3F11E03D0
:10542000C8BFD3F1210C0CDD4FF0004242EAC1228B
:1054300042EA505232FA03FC8CEAE17CACEBE170B8
:105440007047102BC4BF0020704703F5787CBCF177
:10545000FF3F04D06FF0004282EA2100704770B530
:1054600000F030F94992248000207047F2E70000F4
:105470004FEA1153A3F58063D3F11E03A8BFD3F104
:10548000200C08DB4FF0004242EAC12252EA50529F
:1054900032FA03F0704709420BD4102BC4BF00202E
:1054A000704703F5787CBCF1FF3F05D04FF0FF302B
:1054B00070474FF00000704770B500F003F900BF6F
:1054C0004992248000207047F0E710F0004248BF66
:1054D0004042B0FA80F310FA03F10AD0C3F11D0381
:1054E00003F580634FEA415002EB035202EBD121F6
:1054F00070474FF00000704751EA030C17D41CF5B9
:10550000801F58BFBCF5801F00F10680994218BF6C
:10551000704708BF9042704707D711F5801F58BFEA
:1055200013F5801F19D499427047894270471CF5C2
:10553000801F08D5BCF5801FF7D58B4218BF704778
:1055400008BF824270474FF4001C1CEB410F38BF6C
:105550001CEB430F01D28B42704770B500F0B2F8DC
:10556000922449004FF000514FF08053FFF7B0BD37
:10557000DFF848C170B51CEA111E1EBF1CEA1315E6
:105580009EEA0C0F95EA0C0F00F06F8081EA03048D
:1055900023EA4C134EEAD47E21EA4C1141F48011E7
:1055A00043F48013AE44A1FB024CA0FB0365AEF1B3
:1055B0007F7E361955EB0C05A1FB034C4CF1000323
:1055C000A0FB021C16EB0C06654153F100030942D7
:1055D00018BF46F0010613F4007F0BD14FEA0331E8
:1055E0004FEA0530340341EA155140EA16506FF096
:1055F00003020AE04FEAC3214FEAC520F40241EA60
:10560000555140EA56506FF0020202EB2E4201EB78
:10561000025585EACE710AD05FEA440C18BF24F027
:10562000004450F1000041F1000120EAD47040F242
:10563000FE7C624500D270BDA84214BF4FF080448A
:105640004FF04044002E08BF0024BEF1806FA8BF79
:10565000A1F1C041BDE8704080F282804FF00000AF
:1056600001F1C04101F0004170479EEA0C0F0CEAC5
:10567000131518BF95EA0C0F06D04FF0000081EA11
:10568000030E0EF0004170BD00F01CF88900013ED1
:1056900000F007B800F009B84FEA430C5FEA5C5C21
:1056A00008D081EA030100F05BB84FEA410C5FEAE1
:1056B0005C5CF6D14FF00000014970470000FF0725
:1056C0000000F87F0EF1020E2EF0030E5EF8046B60
:1056D000364205D4012A43EB030515F5001F12D805
:1056E000012841EB010C1CF5001F0CD80ED14FEA2C
:1056F000D17C15F5001F0CEB4C0C0CF1020C08BF13
:105700004CEBD37C04E04FF0080C01E04FEAD37C73
:105710000CEB4C0526FA05F606F00706B6F1040C6C
:1057200006D20EEB860CBDE870404CF0010C6047D1
:10573000DFE80CF0090B02024FF000414FF00000CF
:10574000A1F5002170BD19461046012851EB010456
:1057500018BFD4F5001484BF002001F0004170BDD3
:105760000808A0F500114FEA3101704753EA010C17
:1057700017D41CF5801F58BFBCF5801F00F10680B0
:105780008B4218BF704708BF8242704707D713F596
:10579000801F58BF11F5801F19D48B4270479B4260
:1057A00070471CF5801F08D5BCF5801FF7D59942BE
:1057B00018BF704708BF904270474FF4001C1CEBA5
:1057C000430F38BF1CEB410F01D2994270470FB411
:1057D0000CBC03BCFFF7C1BE10B591EA030F48BF74
:1057E00083F000433FF5D4AB841A71EB030C07D26E
:1057F00012198CF0004C43EB0C03001B61EB0C0105
:10580000DFF8A4E14FEA1154A4EB135C1EEA430F46
:1058100018BF9EEA445F00F0B08023EA6E03524254
:1058200021EA0451C3EB6E0338BF5B1EDCF1200E8E
:1058300025D322FA0CFE10EB0E0043FA0CFE41EBCE
:105840000E01CCF1200E03FA0EFE10EB0E0051F10A
:105850000001CCF1200E29D412FA0EF201EB045112
:10586000BDE8104058BF7047401C1CBFB2F1004F4C
:10587000704700280CBF491C20F00100704712EB54
:10588000020E43EB030218BF4FF0010E4EEA420234
:10589000ACF1200CDCF11E0E54D943FA0CFE10EBD7
:1058A0000E0051F1FF31CCF11E0ED5D50EF1010ED7
:1058B00012FA0EFE404141EB010101EB445C5FEA4C
:1058C0005C5C10D910EBDE7001EB045138BFBEF107
:1058D000004FBDE8104018BF704700280CBF491C9E
:1058E00020F00100704730D24FEAD42C11F500119E
:1058F00024F400641BD0B1FA81F20B3AA41AA41E5E
:10590000D2F12003914030FA03F31943904001EBA8
:10591000CC71002C01EB0451BDE81040A8BF7047CA
:1059200001F1C0414FF0000001F000417047B0FAB2
:1059300080F310FA03F100D110BDE41A173C4805BA
:10594000C90AE4E701EB045110BD491001EB045111
:10595000BDE810404FEA300002E04FF00001704710
:105960004A0008BF0042F8D0B2F5001F28BF7047B8
:1059700001F000414FF0000070479EEA445F07D0FD
:1059800011EA5E0FBDE8104004BF002100207047FF
:10599000BDE8104070B5FFF795FE00BF40DFF63E52
:1059A00083F00041104670470000E0FF43004FEADB
:1059B000D30C4FEA3C0C43401FBF40070CF1605131
:1059C00013F0FE4F70471CF0006F03D100200CF065
:1059D000004170470CF0004343EA507010B540EAB4
:1059E000CC0000F048FA00BF000000924FEA00012E
:1059F000FFF7B6BE4FF000414FF00000A1F50021C7
:105A00007047000090EA010F48BF81F0004100F1AB
:105A10008482421A3CBF801A89184FEAD0524FF054
:105A20007F4C1CEA410FA2EBD15318BF9CEA026FD6
:105A300000F03B804FF0004C4CEA00204CEA012182
:105A400021FA03FC10EB0C0C1ED202F1FF325FEACC
:105A50001C2040EBC25038BF70471CF07F0F4FEA4C
:105A6000400C18BFBCF17F4F38BF7047C3F1200313
:105A7000994008BF20F00100BCF17F4F38BF70474C
:105A8000A0F1C04000F03DBA4FEA3C00000A40EBF4
:105A9000C25028BF1CF0FF0F4FEA400CE6D018BFE1
:105AA000BCF17F4F38BF7047EAE79CEA026F05D030
:105AB00010EA5C0F08BF00F00040704710B500F01E
:105AC000DAF900BF64FBBE3E401058BFC0F1404051
:105AD000491058BFC1F140418142EFF30080704747
